:020000040800F2
:1000000000500020213E0008FD3C0008FF3C000895
:1000100000000000000000000000000000000000E0
:10002000000000000000000000000000013D00088A
:100030000000000000000000033D0008053D00082E
:10004000713E0008713E0008713E0008713E0008D4
:10005000713E0008713E0008713E00080D3D000829
:10006000713E0008713E00085D3D0008713E0008C9
:10007000713E0008713E0008713E0008713E0008A4
:10008000753D0008853D0008713E00080000000035
:10009000713E0008713E0008953D0008713E000861
:1000A000713E0008713E0008713E0008A53D000841
:1000B000713E0008713E0008713E0008713E000864
:1000C00010B5064C2378002B07D1054B002B02D02E
:1000D000044800E000BF0123237010BD040000208D
:1000E00000000000CC3E0008044B10B5002B03D0EC
:1000F0000349044800E000BF10BDC04600000000F6
:1001000008000020CC3E0008002243088B4274D334
:1001100003098B425FD3030A8B4244D3030B8B4208
:1001200028D3030C8B420DD3FF22090212BA030C11
:100130008B4202D31212090265D0030B8B4219D3F2
:1001400000E0090AC30B8B4201D3CB03C01A524112
:10015000830B8B4201D38B03C01A5241430B8B425A
:1001600001D34B03C01A5241030B8B4201D30B0343
:10017000C01A5241C30A8B4201D3CB02C01A52416A
:10018000830A8B4201D38B02C01A5241430A8B422D
:1001900001D34B02C01A5241030A8B4201D30B0216
:1001A000C01A5241CDD2C3098B4201D3CB01C01A30
:1001B000524183098B4201D38B01C01A524143093A
:1001C0008B4201D34B01C01A524103098B4201D328
:1001D0000B01C01A5241C3088B4201D3CB00C01A95
:1001E000524183088B4201D38B00C01A524143080D
:1001F0008B4201D34B00C01A5241411A00D2014632
:10020000524110467047FFE701B5002000F0F0F8BA
:1002100002BDC0460029F7D076E7704703460B437E
:100220007FD4002243088B4274D303098B425FD3EF
:10023000030A8B4244D3030B8B4228D3030C8B421B
:100240000DD3FF22090212BA030C8B4202D3121201
:10025000090265D0030B8B4219D300E0090AC30BD6
:100260008B4201D3CB03C01A5241830B8B4201D383
:100270008B03C01A5241430B8B4201D34B03C01A6C
:100280005241030B8B4201D30B03C01A5241C30AE4
:100290008B4201D3CB02C01A5241830A8B4201D355
:1002A0008B02C01A5241430A8B4201D34B02C01A3F
:1002B0005241030A8B4201D30B02C01A5241CDD2E4
:1002C000C3098B4201D3CB01C01A524183098B422F
:1002D00001D38B01C01A524143098B4201D34B0118
:1002E000C01A524103098B4201D30B01C01A52417B
:1002F000C3088B4201D3CB00C01A524183088B4202
:1003000001D38B00C01A524143088B4201D34B00EA
:10031000C01A5241411A00D201465241104670475C
:100320005DE0CA0F00D04942031000D34042534061
:1003300000229C4603098B422DD3030A8B4212D321
:10034000FC22890112BA030A8B420CD38901921153
:100350008B4208D3890192118B4204D389013AD090
:10036000921100E08909C3098B4201D3CB01C01A65
:10037000524183098B4201D38B01C01A5241430978
:100380008B4201D34B01C01A524103098B4201D366
:100390000B01C01A5241C3088B4201D3CB00C01AD3
:1003A000524183088B4201D38B00C01A5241D9D2EB
:1003B00043088B4201D34B00C01A5241411A00D26C
:1003C0000146634652415B10104601D34042002B68
:1003D00000D54942704763465B1000D3404201B5E7
:1003E000002000F005F802BD0029F8D016E770479C
:1003F0007047C046002B11D1002A0FD1002900D12F
:10040000002802D00021C943081C07B4024802A1F9
:100410004018029003BDC046D9FFFFFF03B46846F1
:1004200001B5029800F006F8019B9E4602B00CBC94
:100430007047C046F0B54F464646D646C0B50400A4
:1004400082B00D00914698468B422FD82CD0414661
:10045000484600F0DBFE29000600200000F0D6FE32
:10046000331A9C46203B9A4600D576E04B465246CE
:1004700093401F004B46624693401E00AF4228D86F
:1004800025D05346A41BBD41002B00DA7BE000229F
:1004900000230092019301235246934001930123CC
:1004A00062469340009318E08242D0D90022002394
:1004B000009201930A9B002B01D01C605D600098A4
:1004C000019902B01CBC90469946A246F0BDA342D9
:1004D000D7D900220023009201936346002BE9D074
:1004E000FB079846414672080A437B0866460EE0C1
:1004F000AB4201D1A2420CD8A41A9D41012024197B
:100500006D410021013E24184D41002E06D0AB4222
:10051000EED9013E24196D41002EF8D100980199C1
:10052000534600196941002B23DB2B005246D34070
:100530002A006446E2401C0053461500002B2DDBC8
:1005400026005746BE40330026006746BE403200B4
:10055000801A994100900191ACE7624620239B1AD2
:100560004A46DA406146130042468A4017001F435C
:1005700080E7624620239B1A2A0066469A402300A1
:10058000F3401343D4E76246202300219B1A002244
:10059000009101920122DA40019280E72023624615
:1005A00026009B1ADE402F00B0466646B7404646FE
:1005B0003B003343C8E7C046F8B54746CE46430242
:1005C0005B0A4400C20F9C464800DD004B02240E2B
:1005D0005B0A000E80B5984626009146C90FDB00E5
:1005E000271A8A4229D0002F15DD00284AD1002B76
:1005F00000D095E0ED08FF2C00D188E06B025B0A8B
:10060000E6B25B02F605580A3043D20710430CBC31
:1006100090469946F8BD002F00D087E0601CC0B21C
:10062000012800DCB6E0EE1A720100D5C5E0002E0C
:100630003DD1002200260023E3E7002F00DC96E0F6
:1006400000285DD0FF2C60D08022D20413431B2FE2
:1006500000DDECE02022D21B18009340F8405A1E27
:1006600093410343ED186B017BD50134FF2C00D17E
:10067000B7E0012207262A406B089A4D1D4015431A
:100680002E4029E0FF2CB5D08022D20413431B2F2B
:1006900000DDB2E02022D21B19009340F9405A1E1F
:1006A00093410B43ED1A6B015BD5AD01AE093000F0
:1006B00000F08EFD05388640844265DC041B330063
:1006C00020200134E340041BA640751EAE41334395
:1006D00007261D0000241E4001224B461A40002E12
:1006E00004D00F232B40042B00D004356B0100D421
:1006F00080E70134E6B2FF2C2FD1FF26002380E7EC
:10070000002B52D1FF2C00D074E70A00ED08002D19
:10071000F3D08023DB032B435B025B0AFF2670E7E9
:10072000013F002FBED0FF2CB1D163E7002C47D092
:10073000FF2869D08024E4047A4225431B2A00DD87
:10074000C5E02C002026D440B21A95406A1E95417F
:1007500025435D1B04008946A5E7AB015B0A50E712
:10076000002401224B461A406B07BAD142E7002F02
:100770003BD10134E0B201284ADDFF2CBDD0072671
:10078000ED186D082E40A7E70723574D241A354072
:100790001E40A1E7002C1BD1002D6ED1002B00D1F3
:1007A0009AE00A001D003C0024E7013F002F00D121
:1007B00058E7FF2C00D04AE7A7E75E1B894676E79B
:1007C000002D1CD10A00FF281FD004001D0011E7D6
:1007D000002D5DD1002B17D180230022DB03FF26E3
:1007E0000FE70A00FF2600230BE7002C21D1002D84
:1007F00066D1FF28E9D11D0087E7012352E77A1C63
:10080000A7D0FA43FF2899D10A001D00FF24F1E682
:10081000002E21D1002D4FD0002B4CD0ED186B01B4
:100820009ED5314B07362E4001241D4054E701234D
:1008300018E7FF28DFD08024E4047F4225431B2FE4
:100840004DDC2026F61B2C00B540FC406A1E95416D
:100850002543ED18040006E7002DCCD0002B00D175
:1008600053E780216046C903084203D0404608424E
:1008700000D11D000121114047E7002B00D1B9E64E
:10088000EA1A500125D507265D1B2E40894623E72D
:10089000FF24002B00D1ADE680226046D203104237
:1008A00004D04046104201D11D00894601224B462A
:1008B000FF241A409EE62B00DD080A0000249DE676
:1008C0007A1CC6D0FF43FF28B9D11D001DE70125C2
:1008D0003FE7151E00D044E70022002391E60125E2
:1008E000B7E7C046FFFFFF7DFFFFFFFBF8B55746A8
:1008F0004E464546DE464402E0B546008846640A58
:10090000360EC70F002E63D0FF2E24D08023E400C4
:10091000DB041C43002399469B467F3E43464246E8
:100920005D02D20F5B006D0A1B0E9046924665D0A9
:10093000FF2B55D080220021ED00D2047F3B1543D0
:10094000F61A43464A467B400F2A00D98DE06D488F
:10095000920082589746002C54D108239946063BB2
:10096000FF269B46DAE70025534602291BD00329C0
:1009700000D1BFE0012928D030007F30002820DDE1
:100980006A0704D00F222A40042A00D004352A0125
:1009900003D530005C4A80301540FE2803DCAC01F2
:1009A000640AC2B201E0FF2200246402D205600A98
:1009B000DB07104318433CBC90469946A246AB4621
:1009C000F8BD0122101A1B287CDD00220024ECE770
:1009D000002C1DD104239946033B00269B469DE72E
:1009E000FF3E002D20D1022143464A467B400A4368
:1009F0000F2AD8D84548920082589746002D19D121
:100A00000121F1E70C239946093BFF269B4685E728
:100A1000200000F0DDFB7626431F9C400023764239
:100A2000361A99469B4679E74A4603231A4391466C
:100A3000032186E7280000F0CBFB431F36189D40BA
:100A4000763600217DE780240023E403FF22ACE713
:100A500000258023DB031C4228D01D4226D12B43D6
:100A60005C02640A4346FF229FE762016C01A242D6
:100A700024D21B210025013E012710006D005200E9
:100A8000002801DB944201D8121B3D4301390029A3
:100A9000F3D11400621E944125436DE7BA465946CE
:100AA00025005346022900D061E77CE78023DB0361
:100AB0001C436402640A3B00FF2276E7121B1A21E2
:100AC0000125D9E79E362A00B5402C00C240651E9C
:100AD000AC411443620704D00F222240042A00D004
:100AE0000434620103D4A401640A00225DE70122F8
:100AF00000245AE78024E4032C436402640AFF22A2
:100B000053E7C046503F0008FFFFFFF7903F000843
:100B1000F0B54E4657464546DE46E0B543025B0A11
:100B2000450083B00F1C99462D0EC60F002D57D0DF
:100B3000FF2D24D08020DB00C00418430023814611
:100B40009A469B467F3D7C027A00FB0F640A120E98
:100B5000984623D0FF2A4BD0E30080240020E404F1
:100B60007F3A1C43AD186B1C4746019353467740B0
:100B70003A000F2B48D87D499B00CB589F46002B4D
:100B800000D085E008339A46063B9B467C027A00FB
:100B9000FB0FFF25640A120E9846DBD1002C00D013
:100BA00090E0524601231A4392460120DBE74C466F
:100BB00058461700022824D0032800D1CFE0002295
:100BC000002301284DD15802D205400AFF071043E7
:100BD000384303B03CBC90469946A246AB46F0BDB4
:100BE000002B5BD104239A46033B00259B46AAE7D2
:100BF000FF35002C60D1524602231A439246022050
:100C0000B1E7FF220023DEE74B461B0C9C464B4618
:100C10002604360C180461463300220C6446000C8E
:100C200043434E435043544380191A0C12189642C2
:100C300003D9802149028C4664441B041B0C100418
:100C4000C01883015E1EB341800E1843130C1B199C
:100C50009B0103431C00230179D5012362081C403A
:100C60001443019A7F32002A4DDD630704D00F231D
:100C70002340042B00D00434230103D53C4B019ABC
:100C80001C408032FE2ABCDCA3015B0AD2B29AE788
:100C90000C239A46093BFF259B4654E7180000F0B9
:100CA00097FA4A46431F76259A4000236D429146A3
:100CB0002D1A9A469B4646E7524603231A4392460C
:100CC000032050E7200000F083FA431F2D1A9C40B8
:100CD000763D002047E780230027DB03FF2272E7F1
:100CE000424666E74C463200584662E780234A4651
:100CF000DB031A4222D01C4220D123435B025B0A51
:100D00004746FF225FE701239A1A1B2A21DC2300B2
:100D10000199D3409E318C401A0023005C1EA341F0
:100D200013435A0704D00F221A40042A00D0043378
:100D30005A0111D49B015B0A002244E780234A46F2
:100D4000DB0313435B025B0A3700FF223BE701959D
:100D500087E70022002336E70122002333E78023C0
:100D6000DB0323435B025B0AFF222CE7D03F000832
:100D7000FFFFFFF7F8B54746CE464400C20F80B5E7
:100D800047024802400A8446664648007F0A240E0D
:100D9000F60025009046FB00000EC90FB146FF2863
:100DA00000D185E001267140261A914257D0002ECD
:100DB00043DD002800D07FE04946002900D1AAE0A9
:100DC000013E002E00D0F7E05B1A5A0100D48BE000
:100DD0009B019C09200000F0FBF905388440854206
:100DE00000DDD3E0451B230020200135EB40451BEF
:100DF000AC40621E94412343072400251C4001227D
:100E000041460A40002C04D00F211940042900D08B
:100E10000433590100D480E00135ECB2FF2D00D03D
:100E2000A3E0FF2400235B02E405580AD207204315
:100E300010430CBC90469946F8BD002E74D1601C3E
:100E4000C0B2012800DCA7E04A469C1A620100D526
:100E5000B6E0002CBED1002200240023E3E7002EE0
:100E600000DC85E0002846D0FF2C49D0802248468F
:100E7000D2041043814601221B2E09DC20204C465F
:100E8000801B84404A462000F240441EA041024399
:100E90009B185A0128D50135FF2D00D1A8E0012269
:100EA000072494491A405B080B4013431C40A6E7F3
:100EB000002E00D078E775E7FF2C54D080224946F9
:100EC000D2041143894601221B2E09DC2021484609
:100ED000891B88404A460100F240481E81410A436E
:100EE0009B1A5A0100D573E7012241460A4059076F
:100EF00000D089E711E04846002858D1FF2C0CD1DA
:100F0000DB08002B00D18CE78020C00303435B0289
:100F10005B0AFF2487E7FF2C25D0DB08FF2DF0D0EC
:100F20005B025B0AECB27EE7002C4DD0FF2818D0A4
:100F30008024E404724223431B2A00DDC4E01C0029
:100F40002025D440AA1A93405A1E934123434A466F
:100F50000500D31A884638E7721CF8D0F243FF2800
:100F6000EAD10A004B46FF25D7E79B015B0A5AE707
:100F7000002E41D1651CE9B2012945DDFF2D00D1CC
:100F80004FE707244B445B081C4038E707225A4BC5
:100F90002D1A2340144032E7002C1DD1002B7AD1AA
:100FA0004B46002B00D191E00A000025B5E7013E39
:100FB000002E19D14B446CE7FF2C84D1FF25ACE700
:100FC0004A468846D41A05E7002BC5D10A00FF28F7
:100FD000C8D005004B46A0E7002B49D14B46002B5B
:100FE00077D00A00FF2598E7FF2C00D043E787E77A
:100FF0000A00FF24002316E7002C15D1002B57D13F
:10100000FF28E6D14B467BE7002C20D1002B57D0A0
:101010004946002953D04B445A0168D50724364A23
:101020001C4001251340EAE6FF28EBD08022D204C1
:10103000764213431B2E53DC2025AD1B1A00AB4018
:10104000F2405C1EA34113434B44050021E7002BF3
:10105000D8D04946002900D152E78021C9030F4268
:1010600000D14DE76046084200D049E74B4647E7CC
:101070004846FF25002800D14FE78022D2031742BF
:1010800004D06046104201D14B46884601224146B9
:10109000FF250A4041E7484600281FD01A1A500190
:1010A00020D54A460724D31A1C4088460025A6E6C8
:1010B000741CC9D0F643FF28BCD14B4620E79946A3
:1010C0004B460025DB082BE7012340E700220023E5
:1010D000A9E680230022DB03FF24A4E600251CE709
:1010E0000123B1E7002AF1D013000025FCE600251A
:1010F000FAE6C046FFFFFF7DFFFFFFFB4102420013
:10110000C30F490A120E00207E2A0DD99D2A0CD841
:10111000802000040143952A0ADC9620821AD140DF
:101120004842002B00D108007047034A9818FBE79B
:10113000963A9140F4E7C046FFFFFF7F70B5002864
:101140003DD0C317C5185D40C40F280000F040F81B
:101150009E22121A962A07DCD2B2082833DD0838FC
:1011600085406802400A23E0992A0BDD0523290007
:101170001B1AD94003001B339D402B005D1EAB4161
:1011800019430D00052801DD431F9D402B000F4929
:101190000B406E0709D00F263540042D05D00433CF
:1011A0005D0102D59F220B40121A9B01580AD2B250
:1011B0004002D205400AE4071043204370BD0024DA
:1011C00000220020F4E76802400AF1E7FFFFFFFB7E
:1011D0001C2101231B04984201D3000C10391B0A67
:1011E000984201D3000A08391B09984201D300092B
:1011F000043902A2105C40187047C0460403020282
:1012000001010101000000000000000010B50029EC
:1012100003D1FFF7DDFF203002E0081CFFF7D8FF05
:1012200010BDC04610B50400094B1868FA218900AA
:10123000FEF76AFF00F070F8002801D0012010BD11
:10124000013000222100404200F02CF80020F6E797
:101250000000002010B5084A136840210B431360BA
:101260000020FFF7DFFF041E02D00124200010BD84
:1012700002F032FCFAE7C04600200240014B186839
:101280007047C0462000002070B50400FFF7F6FF4D
:101290000500631C00D00134FFF7F0FF401BA042A3
:1012A000FAD370BD70B5002811DB8408134DC0342B
:1012B000A400625903231840C000FC331E0086407E
:1012C000B24389010B4083401343635170BDC0B2E8
:1012D0000F220240083A920806329200084BD318B7
:1012E0005D6803242040C000FF2214008440A54311
:1012F00089010A4082402A435A60E7E700E100E0A2
:1013000000ED00E01F2318401E3B8340014A13609C
:101310007047C04600E100E001380A4B98420FD800
:10132000094A50600948036A1B021B0AC0210906CA
:101330000B43036200239360073313600020704760
:101340000120FCE7FFFFFF0010E000E000ED00E0FF
:1013500070B5041E3DD005681F4BE8181421FEF738
:10136000D3FE800060641D4B236425230222E254D7
:101370002B681B4A1A40A368E1680B4321690B43A1
:1013800061690B43A1690B43E1690B43216A0B437C
:1013900013432B608023DB01A2689A4210D0114BCB
:1013A00019681C22656C15400F20A8408143196004
:1013B0001968606C02406068904002000A431A603D
:1013C0000023E36325220121A154013AA354002004
:1013D00070BD0120FCE7C046F8FFFDBF00000240E1
:1013E0000F80FFFFA800024010B52523C35C022B2D
:1013F00003D00423C363012010BD026813680E21CB
:101400008B43136001680A6801239A430A601C2217
:10141000416C0A40016C1C0094404C6025228354AE
:1014200023330022C254836B002B02D09847002044
:10143000E2E70020E0E770B5036C196804682568EE
:101440001C23426C134004229A40114214D06A07B4
:1014500012D523689B0603D4236804229343236098
:101460001C22436C1A40016C042393404B60036BB5
:10147000002B00D0984770BD02229A4011421AD02A
:10148000AA0718D523689B0606D423680A2293432B
:1014900023602523093AC2541C22436C1A40016C74
:1014A000022393404B6024230022C254C36A002BC2
:1014B000E1D09847DFE708229A401142DBD02B07A2
:1014C000D9D523680E22934323600E32436C1A4011
:1014D000016C01231C0094404C60C363252283549B
:1014E00023330022C254436B002BC4D09847C2E779
:1014F000F0B5C64600B5002338E0052600E000261A
:10150000AE4035003D430234A400584EA551584C1E
:1015100025684246D4432E0026404A68D20302D5AD
:10152000424615432E00524D2E606D682E00264017
:101530004A68920302D5424615432E004C4D6E6018
:10154000AD682E0026404A68D20202D542461543B5
:101550002E00474DAE60ED682C404A68920202D5DD
:1015600042462A431400424AD46001330A681400F8
:10157000DC4077D001249C4022409046F5D04D6855
:10158000022D01D0122D0ED1DD080835AD002F58E7
:1015900007261E40B6000F22B24097430A69B240A8
:1015A00016003E432E504D686E1E012E03D9112D9C
:1015B00001D0122D12D185685F000326BE40B543CD
:1015C0002E00CD68BD40354385604568A5434A6817
:1015D0001609012434409C402C43446007685E0097
:1015E00003242500B540ED432F404A681440B44021
:1015F0003C430460C46825408C68B4402C43C460FC
:101600004A68D200B1D51B4D6C6B012634436C6324
:101610009C08A51CAD00154EAF5903261E40B50011
:101620000F26AE40B743A026F605B04200D166E7CC
:10163000114EB0420ED0114EB0420DD0104EB042FD
:101640000CD0104EB0420BD00F4EB04200D154E738
:10165000062655E7012653E7022651E703264FE702
:1016600004264DE704BC9046F0BDC0460000014092
:101670000004014000100240000400500008005027
:10168000000C005000100050001C005003690B4279
:1016900001D1002070470120FCE7002A01D18162BE
:1016A00070478161FCE7000010B5054B5B6918428B
:1016B00000D110BD024B586101F07EFDF9E7C04634
:1016C0000004014010B5264BD9680C230B40082BB1
:1016D00042D00C2B11D0042B09D0214B5A68520B4D
:1016E00007231340013380200002984010BD1C4B9B
:1016F0001B68DB0632D51B48F8E78A0C0F23134022
:10170000194AD05C890D032211400131144BDB686A
:10171000DB030DD4124B1B68DB0613D54201121AF2
:1017200093019B1ADB001B181802FEF7EDFCDDE7A6
:101730004201121A93019B1ADB001B185802FEF794
:10174000E3FCD3E74201121A93019B1ADB001B183A
:101750009802FEF7D9FCC9E70448C7E70448C5E783
:101760000010024000093D002C3F000800127A00E2
:101770000024F400F0B583B0041E00D19DE2C44BF8
:10178000DA680C251540DA68802676021640036870
:10179000DB0736D5082D2CD00C2D28D0636880228D
:1017A0005202934255D0A022D202934258D0B84B55
:1017B0001A68B8490A401A601A68802149020A402A
:1017C0000192019A1A68B4490A401A606368002BB2
:1017D00052D0FFF753FD0700AD4B1B689B0310D49D
:1017E000FFF74CFDC01B6428F6D9032066E2002EEB
:1017F000D4D0A74B1B689B0303D56368002B00D193
:101800005EE223689B076CD5E3689A0605D5A0487D
:10181000026820210A4302608B43042D3CD00C2D2A
:1018200038D0002B00D1AEE099490A6809208243E4
:1018300013430B60FFF722FD0600954B1B685B0707
:1018400000D597E0FFF71AFD801B0228F5D9032089
:1018500034E28F4A116880235B020B431360B5E7C3
:101860008B4B19688022D2020A431A6019688022C1
:1018700052020A431A60A9E7FFF700FD0700844BF4
:101880001B689B03BDD5FFF7F9FCC01B6428F6D984
:10189000032013E2002EC4D17D4A1268520702D5FC
:1018A000002B00D10EE27A4E72687C490A40216911
:1018B00009020A437260326809218A431343336084
:1018C000FFF700FFF26812090F231340744AD35C3C
:1018D000D840744B18600020FFF7A4FC002800D00B
:1018E000ECE12368DB062CD5002D5FD1684B1B682B
:1018F0009B0503D5E369002B00D1E5E1644A5368F9
:1019000069490B40616A0B43536053681B021B0A11
:10191000216A09060B435360636A590B0131802326
:101920001B028B40D16809090F220A405C498A5C7E
:10193000D3405C4A13600020FFF774FC002800D0FD
:10194000BCE123681B077DD56369002B67D0504A33
:10195000136D01210B431365FFF790FC06004C4B00
:101960001B6D9B076ED4FFF789FC801B0228F6D9FC
:101970000320A3E146494B68484A134022691202FA
:1019800013434B60ADE7424A136801218B43136058
:10199000FFF774FC06003E4B1B685B07A1D5FFF701
:1019A0006DFC801B0228F6D9032087E1E369002B38
:1019B00022D0374A116880235B000B431360FFF786
:1019C0005DFC0600324B1B689B0506D4FFF756FCF6
:1019D000801B0228F6D9032070E12D4A5368324952
:1019E0000B40616A0B43536053681B021B0A216A58
:1019F00009060B435360A4E7254A13682B490B40A3
:101A00001360FFF73BFC0600214B1B689B0598D534
:101A1000FFF734FC801B0228F6D903204EE11C4A54
:101A2000136D01218B431365FFF728FC0600184B4B
:101A30001B6D9B0706D5FFF721FC801B0228F6D9FA
:101A400003203BE123685B0700D48CE0104B9B6BC9
:101A5000DB001BD40E4A916B80235B050B43936321
:101A60000126134B1B68DB0526D5A3688022520094
:101A7000934235D0002B4BD1054B1A6D0B490A40D0
:101A80001A651A6D0B490A401A652FE00026E8E72F
:101A900000100240FFFFFEFFFFFFFBFFFFE0FFFF24
:101AA000383F000800000020FF1FFFFFFFFEFFFF80
:101AB00000700040FFFBFFFF864A116880235B0037
:101AC0000B431360FFF7DAFB0700824B1B68DB0553
:101AD000CBD4FFF7D3FBC01B6428F6D90320EDE07D
:101AE0007D4A116D80235B000B431365A368002BB7
:101AF00028D0FFF7C3FB0700774B1B6D9B0530D445
:101B0000FFF7BCFBC01B754B9842F5D90320D5E00D
:101B1000A022D200934209D06F4B1A6D70490A403F
:101B20001A651A6D6F490A401A65DFE76A4B196D2D
:101B3000013AFF3A0A431A65196D802252000A439E
:101B40001A65D3E7FFF79AFB0700634B1B6D9B05F4
:101B500007D5FFF793FBC01B604B9842F5D90320D4
:101B6000ACE0012E21D023689B063CD5A369002B55
:101B700021D0594B99680120014399605A6B024367
:101B80005A63594A116A80239B010B431362FFF782
:101B900075FB0600504B9B689B0724D4FFF76EFB38
:101BA000801B0228F6D9032088E04B4A936B4F49EB
:101BB0000B409363D7E7484A936801218B439360B6
:101BC000494A136A4A490B401362FFF757FB060064
:101BD000414B9B689B0706D5FFF750FB801B0228F3
:101BE000F6D903206AE0A36A002B00D16EE00C2D29
:101BF00049D0022B12D0384A13683E490B4013607B
:101C0000FFF73CFB0400344B1B689B0139D5FFF701
:101C100035FB001B0228F6D903204FE02E4A13683B
:101C200034490B401360FFF729FB05002A4B1B6862
:101C30009B0106D5FFF722FB401B0228F6D90320A3
:101C40003CE02549CB682C4A1340E26A206B0243F2
:101C5000606B02431343CB600A6880235B04134329
:101C60000B60FFF70BFB04001B4B1B689B0106D4AA
:101C7000FFF704FB001B0228F6D903201EE000201A
:101C80001CE000201AE0144BDA6880235B0213404A
:101C9000E16A8B4201D0012010E0F0239B03134046
:101CA000216B8B4201D0012008E0C0231B041A40A5
:101CB000636B9A420CD0012000E0012003B0F0BD1C
:101CC0000120FBE70120F9E70120F7E70020F5E715
:101CD0000020F3E70070004000100240881300006D
:101CE000FFFEFFFFFFFBFFFF00000140FFFFFFEFD4
:101CF000FFDFFFFFFFFFFFFEFFFF02FF70B50400E5
:101D00000D00002800D1BAE05F4B1A680123134090
:101D10008B420BD25C490B68012293432B430B602F
:101D20000B681A40AA4201D00120A9E023689B0752
:101D300006D5564AD368F0218B43A1680B43D36084
:101D40002368DB0764D56368022B09D0032B29D0F5
:101D5000012B2DD04D4A1268920506D401208FE048
:101D60004A4A1268920300D48BE04849CA680320AB
:101D700082431343CB60FFF781FA06006368022BAE
:101D80001CD0032B28D0012B34D0404BDB680C2215
:101D90001A423DD0FFF772FA801B3D4B9842F4D9AE
:101DA00003206DE0394A12689201DED4012067E019
:101DB000364A12685207D8D4012061E0334BDA6802
:101DC0000C231340082B23D0FFF758FA801B304B0D
:101DD0009842F3D9032053E02C4BDA680C231340CC
:101DE0000C2B15D0FFF74AFA801B294B9842F3D9E8
:101DF000032045E0254BDA680C231340042B07D061
:101E0000FFF73CFA801B224B9842F3D9032037E0BE
:101E10001D4B1A6801231340AB420BD91A490B68BA
:101E2000012293432B430B600B681A40AA4201D056
:101E3000012025E023685B0706D5144AD3681549BD
:101E40000B40E1680B43D36023681B0707D50F499C
:101E5000CB68114A13402269D2001343CB60FFF7CD
:101E600031FC0A4BDA6812090F2313400B4AD35C8A
:101E7000D8400B4B18600020FFF7D4F900E0012098
:101E800070BD0120FCE7C046002002400010024067
:101E900088130000FFF8FFFFFFC7FFFF383F00086F
:101EA00000000020014B18687047C0460000002069
:101EB00010B5FFF7F7FF044BDA68120A0723134047
:101EC000024AD35CD84010BD00100240483F0008D1
:101ED00010B5FFF7E7FF044BDA68D20A0723134077
:101EE000024AD35CD84010BD00100240483F0008B1
:101EF00070B5040082231B0102681A425AD0754B48
:101F00009B6BDB0000D59DE0724A916B80235B05E3
:101F10000B4393630125704B1B68DB0500D493E0F2
:101F20006C4B1A68C0239B031A4061680B409342B4
:101F300000D19EE0C0239B020A001A409A4200D1C1
:101F40009FE0644B1B6DC022920213401FD01140D2
:101F5000994202D02268920608D4C0229202A16857
:101F60000A409A4213D023681B0510D5594B186DAF
:101F70005A4A02401E6D8021090331431965196DCB
:101F8000574E314019651A65C30500D580E0636876
:101F9000C022920219001140914200D188E04D49BF
:101FA0000B6DC02292026068024013430B65012D45
:101FB00000D187E02368DB0706D5464AD36C0321AE
:101FC0008B43E1680B43D36423689B0706D5414AE2
:101FD000D36C0C218B4321690B43D36423685B07CB
:101FE00006D53C4AD36C3F490B4061690B43D3642F
:101FF00023681B0706D5374AD36C3B490B40A169C0
:102000000B43D3642368DB0506D5324AD36C3349CE
:102010000B40E1690B43D36423685B0606D52D4A68
:10202000D36C32490B40616A0B43D36423681B06AF
:102030004ED5284AD36C2E490B40216A0B43D364FA
:10204000002070BD002566E7234A116880235B00ED
:102050000B431360FFF712F906001F4B1B68DB05EB
:1020600000D55DE7FFF70AF9801B6428F5D9032046
:10207000E7E7C0239B03A0680340934200D059E7E1
:102080005FE7144B1B689B0300D45AE70120D8E795
:10209000FFF7F4F806000F4B1B6D9B0500D576E7A4
:1020A000FFF7ECF8801B134B9842F4D90320C8E7E4
:1020B00008490A6810480240C020800303401343C7
:1020C0000B606CE70A008B6B0C490B40936371E764
:1020D0000020B6E70010024000700040FFFFFCFF48
:1020E000FFFFF7FFFFF3FFFFFFCFFFFFFFFFFFFB48
:1020F000FFFFF3FF88130000FFFFCFFFFFFFFFEF9D
:1021000003688022D205904208D0154A904205D03B
:10211000144A904202D0144A904203D17022934351
:102120004A6813438022D205904208D00C4A90425C
:1021300005D00C4A904202D00B4A904203D10B4A80
:102140001340CA681343802293430A691343036010
:102150008B68C3620B688362012343617047C0468A
:10216000000400400008014000140140FFFCFFFF94
:1021700030B5036A012293430362036A44688269AB
:102180007325AA430D682A430225AB438D682B4370
:10219000446082614A684263036230BD30B5036ABD
:1021A000102293430362036A45688269084C144015
:1021B0000A68120222432024A3431C008B681B01DF
:1021C0002343456082614A688263036230BDC04632
:1021D000FF8CFFFF30B5036A0A4A13400362036AAB
:1021E0004568C2697324A2430C682243064C1C4014
:1021F0008B681B0223434560C2614A68C263036265
:1022000030BDC046FFFEFFFFFFFDFFFF30B5036A94
:102210000A4A13400362036A4568C269084C1440C5
:102220000A6812022243074C1C408B681B0323439D
:102230004560C2614A680264036230BDFFEFFFFF80
:10224000FF8CFFFFFFDFFFFF30B5036A046A012543
:10225000AC4304628469EF35AC43120122430A2483
:10226000A34319438261016230BD000030B5036AA7
:102270001024A34303628469036A054D2C401203B2
:102280002243A024A343090119438261016230BDA6
:10229000FF0FFFFF0B008168702291431943072352
:1022A000194381607047000030B58468034D2C40AD
:1022B0001B021A4311432143816030BDFF00FFFF21
:1022C00010B51F23194001248C40036AA343036205
:1022D000036A8A401A43026210BD70B5041E14D00E
:1022E0003923C35C002B0AD0392502236355211DF5
:1022F0002068FFF705FF01236355002070BD3833C8
:102300000022C25401F0F6FBEEE70120F6E7704729
:1023100070B5041E14D03923C35C002B0AD03925B4
:1023200002236355211D2068FFF7EAFE0123635550
:10233000002070BD38330022C254FFF7E8FFEEE7FB
:102340000120F6E710B5040001220068FFF7B8FF8E
:102350002268916807230B40062B03D013680121E4
:102360000B431360002010BD70B504000D0038232E
:10237000C35C012B69D038230121C15401330131E1
:10238000C154042A37D019D9082A4AD00C2A2AD194
:1023900029000068FFF73AFF2268D16980231B01FA
:1023A0000B43D3612268D36929490B40D36121686B
:1023B000CB69EA6812021343CB6114E0002A12D100
:1023C00029000068FFF7D4FE2268936908210B43B7
:1023D00093612268936904398B43936122689369FE
:1023E000E9680B43936139230122E254013B002247
:1023F000E254002070BD29000068FFF7CFFE22687C
:10240000916980231B010B439361226893691049F2
:102410000B40936121688B69EA68120213438B6158
:10242000E1E729000068FFF7D5FE2268D36908219B
:102430000B43D3612268D36904398B43D36122688B
:10244000D369E9680B43D361CDE70220D2E7C046E8
:10245000FFFBFFFF10B504003823C35C012B66D0DF
:1024600038230122C25401330132C25402689368F6
:102470003048034093600B68402B4ED015D9602B39
:1024800041D021D9702B2BD080229201934232D19E
:10249000CB684A6889682068FFF706FF2268916860
:1024A0008023DB010B43936025E0102B07D004D978
:1024B000202B04D0302B02D01DE0002B1BD11900A3
:1024C0002068FFF7E7FE16E0502B14D1CA68496870
:1024D0002068FFF7B9FE50212068FFF7DBFE0AE015
:1024E000CB684A6889682068FFF7DEFE2268936837
:1024F00077210B43936039230122E254013B0022F0
:10250000E254002010BDCA6849682068FFF7AEFE9B
:1025100060212068FFF7BEFEEDE7CA6849682068C1
:10252000FFF792FE40212068FFF7B4FEE3E70220A8
:10253000E8E7C0468800FFFF704770477047704764
:1025400010B5040003681A6992070FD5DA6892077C
:102550000CD5032252421A610123037603689B695A
:102560009B0755D0FFF7EAFF0023237623681A69FB
:10257000520712D5DA6852070FD5052252421A6166
:102580000223237623689A69C0239B001A4245D010
:102590002000FFF7D3FF0023237623681A69120770
:1025A00010D5DA6812070DD5092252421A610423A8
:1025B00023762368DB699B0737D02000FFF7BEFF37
:1025C0000023237623681A69D20612D5DA68D20668
:1025D0000FD5112252421A61082323762368DA6943
:1025E000C0239B001A4227D02000FFF7A7FF00233B
:1025F000237623681A69D20702D5DA68D20722D473
:1026000023681A69520602D5DA68520622D410BD30
:10261000FFF793FF200000F02FFEA5E72000FFF753
:102620008CFF200000F028FEB5E72000FFF785FFB3
:10263000200000F021FEC3E72000FFF77EFF20000E
:1026400000F01AFED3E7022252421A612000FFF77F
:1026500073FFD5E7412252421A612000FFF76FFF56
:10266000D5E7F0B53823C35C012B1BD038260123F6
:102670009C46835539270133C355026854689368D3
:102680007025AC430D682C438025AB431D004B687F
:102690002B435460026893606346C35500238355FF
:1026A0000020F0BD0220FCE73823C35C012B06D0DC
:1026B0000368196538230022C254002070470220A5
:1026C000FCE700000268136806490B4013600268CB
:1026D00093682331FF318B4393602023836700236A
:1026E00003667047DFFEFFFF436F212B00D070476A
:1026F0003133C35A9BB2002B0CD0C36C1A780368D9
:102700009A62C36C0133C3645222835A013B9BB269
:102710008352ECE70268136880218B4313600268E0
:10272000136840390B431360E1E7436F212B00D05E
:1027300070473133C35A9BB2002B0ED0C36C1B8839
:102740000268DB05DB0D9362C36C0233C364522263
:10275000835A013B9BB28352EAE7026813688021E7
:102760008B4313600268136840390B431360DFE743
:1027700030B5436F202B36D1002936D0002A36D011
:10278000836880246401A34220D07024045D012C5E
:102790002FD0702401250555C164502142520231C9
:1027A000425200224266C2672132426780225201B1
:1027B000934212D0104B436670230022C254026829
:1027C000136880210B43136000200DE00469002C86
:1027D000DBD1CC07D9D5012006E00369002BE9D174
:1027E000064B4366E8E7022030BD0120FCE70120EC
:1027F000FAE70220F8E7C046E92600082B27000880
:1028000030B5836F202B6DD1002900D16CE0002AF8
:1028100000D16BE0836880246401A3421AD0702445
:10282000045D012C64D070240125055541655821B3
:1028300042520231425200220266802252019342E9
:102840000FD0002B1CD10369002B15D15C33FF2264
:10285000C2521CE00469002CE1D1CC07DFD5012075
:1028600041E00369002B03D15C33224AC2520EE0DF
:102870005C23FF22C2520AE05C237F22C25206E0A0
:102880008022520593421CD05C230022C2520023B6
:10289000C367223383670268936801210B43936007
:1028A00080235B0182689A4216D0134B0366702323
:1028B0000022C25402681168B0330B431360002039
:1028C00011E00369002B03D15C337F22C252DEE7A3
:1028D0005C233F22C252DAE70369002BE5D1074BA4
:1028E0000366E4E7022030BD0120FCE70120FAE79F
:1028F0000220F8E7FF0100002129000885290008CF
:10290000704710B50268136840218B431360202381
:10291000436700234366FFF7F3FF10BD70470000D5
:1029200010B55C23C35A826F222A05D002689369CE
:1029300008210B43936110BD0268526ADBB2134059
:10294000426D1370436D013343655A22835A013B34
:102950009BB28352835A9BB2002BECD1026813685E
:1029600007490B401360026893682331FF318B43A2
:1029700093602023836700230366FFF7CFFFDAE726
:10298000DFFEFFFF10B55C23C25A836F222B05D0F8
:102990000268936908210B43936110BD03685B6A69
:1029A0001340426D1380436D023343655A22835AAC
:1029B000013B9BB28352835A9BB2002BEDD102683C
:1029C000136808490B401360026893682331FF3194
:1029D0008B4393602023836700230366FFF79EFFEA
:1029E000DBE7C046DFFEFFFF7047000070B5040064
:1029F0000168CB6908688D680F221A400AD19E06CB
:102A000008D5860606D5236E002B00D189E020006C
:102A1000984786E0002A6BD001222A4003D19026F5
:102A20007600304264D0DD0706D5C50504D5012502
:102A30000D62E16F2943E167990708D5002A06D0A6
:102A4000216802250D62E16F02352943E1675907CC
:102A500008D5002A06D0216804250D62E16F023DE9
:102A60002943E167190709D5810601D4002A05D059
:102A7000226808211162E26F0A43E267E26F002ACE
:102A80004FD09B0606D5830604D5236E002B01D0BC
:102A900020009847E26F23689B685B0601D4130708
:102AA00020D52000FFF70EFE23689A68520615D540
:102AB0009A6840218A439A60E36E002B0AD01B4A31
:102AC0009A63E06EFEF790FC00282AD0E06E836BDC
:102AD000984726E02000FFF787FF22E02000FFF75D
:102AE00083FF1EE02000FFF77FFF0023E36718E06D
:102AF000DA0201D56A0209D41A060ED502060CD5EF
:102B0000636E002B0DD0200098470AE080235B0302
:102B10000B62200000F0E8FA03E05B0601D54306F3
:102B200000D470BD2000FFF7ECFEFAE7312B00085F
:102B300010B5806A00235A228352083A8352FFF765
:102B400053FF10BDD0B504000168836802691343C8
:102B500042691343C26913430A68BA4802401343E7
:102B60000B6022685368B8490B40E1680B4353601F
:102B7000A1692268B54B9A4201D0236A1943936830
:102B8000B34803400B4393602368B24A93421CD07E
:102B9000B14A93422DD0B14A93425FD0B04A93429A
:102BA0005ED0AA4A934239D01022A8498B425BD00A
:102BB00080231B02E169994200D190E0082A00D9E4
:102BC00071E19200A74B9B589F46A74AD16C032204
:102BD0000A40012A09D0002A05D0022A3AD0032A45
:102BE00005D01022E1E70122DFE70422DDE7082219
:102BF000DBE79D4AD16C0C220A40042A0AD005D991
:102C0000082A29D00C2A07D10822CEE7002A03D1AE
:102C10000022CAE70422C8E71022C6E7924AD26C13
:102C2000C02109010A408021C9008A420ED009D979
:102C3000802109018A4215D0C02109018A4207D1A9
:102C40000822B2E7002A03D10022AEE70422ACE753
:102C50001022AAE70222A8E70222A6E70022A4E7A0
:102C60000022A2E70222A0E7022A2DD007D9042AD7
:102C700030D0082A00D019E18020000207E0002AA5
:102C800000D013E1FFF714F9002800D110E16268C9
:102C900053009B18834200D90CE11303834200D2F6
:102CA0000AE1070E0602500800218019794100232D
:102CB000FDF7A0FB6D4BC2186D4B9A4200D9FDE0A9
:102CC0002368D860002085E0674B1B68DB0604D4CE
:102CD0006848DCE7FEF7F6FCD6E76748D7E7082A3E
:102CE00062D89200654B9B589F46FFF7E1F8400081
:102CF00063685B08C0186168FDF706FA03041B0CE3
:102D000000205F491A00103A8A4200D9D8E00F2209
:102D1000190091435B08083A13400B432268D360C3
:102D200058E0FFF7D5F8400063685B08C018616899
:102D3000FDF7EAF903041B0C0020E2E74A4B1B688D
:102D4000DB060BD5636858084E4B9C4660446168AF
:102D5000FDF7DAF903041B0C0020D2E7636858087A
:102D6000494B9C4660446168FDF7CEF903041B0C97
:102D70000020C6E7FEF7A6FC400063685B08C018A9
:102D80006168FDF7C1F903041B0C0020B9E7636813
:102D9000580880235B029C4660446168FDF7B4F9E3
:102DA00003041B0C0020ACE701200023A9E7FFF778
:102DB0007FF863685B08C0186168FDF7A5F9030434
:102DC0001B0C00202E491A00103A8A4200D979E0E3
:102DD0002268D360002323666366D0BDFFF778F8CE
:102DE00063685B08C0186168FDF78EF903041B0C6B
:102DF0000020E7E71C4B1B68DB060BD5636858080F
:102E00001D4B9C4660446168FDF77EF903041B0C72
:102E10000020D7E763685808164B9C4660446168F9
:102E2000FDF772F903041B0C0020CBE7FEF74AFC08
:102E300063685B08C0186168FDF766F903041B0C42
:102E40000020BFE7F369FFEFFFCFFFFF004800401E
:102E5000FFF4FFFF0038014000440040004C0040F8
:102E600000500040E43E00080010024000FDFFFF5B
:102E7000FFFC0F000024F40000093D00083F00089B
:102E8000EFFF000000127A000048E801636858086C
:102E900080231B029C4660446168FDF735F90304FA
:102EA0001B0C00208EE7012000238BE7012091E717
:102EB00000208FE701208DE701208BE7012089E7C3
:102EC000012087E7012085E7436ADB0706D5026812
:102ED00053682C490B40816A0B435360436A9B073C
:102EE00006D50268536828490B40C16A0B435360FA
:102EF000436A5B0706D50268536824490B40016B9F
:102F00000B435360436A1B0706D502685368204988
:102F10000B40416B0B435360436ADB0606D50268E6
:102F200093681C490B40816B0B439360436A9B067B
:102F300006D50268936818490B40C16B0B43936038
:102F4000436A5B060BD50268536814490B40016C59
:102F50000B43536080235B03026C9A420AD0436A9E
:102F60001B0606D5026853680D490B40816C0B4364
:102F700053607047026853680A490B40416C0B4329
:102F80005360ECE7FFFFFDFFFFFFFEFFFFFFFBFFCE
:102F9000FF7FFFFFFFEFFFFFFFDFFFFFFFFFEFFF01
:102FA000FFFFF7FFFFFF9FFFF0B5C64600B5060025
:102FB0000C0017009846069D3368DB6923401B1BF5
:102FC0005A425341BB421CD16B1CF5D0FEF756F957
:102FD0004346C01AA84201D8002DEDD132681368CB
:102FE0000A490B40136032689368A331FF318B4369
:102FF000936020237367B36750330022F254032099
:1030000000E0002004BC9046F0BDC0465FFEFFFF1C
:1030100030B583B004000023C367FEF72FF9050025
:1030200023681B681B070CD423681B685B0715D437
:1030300020236367A36750330022E254002003B0CB
:1030400030BD80210C4B0093030000228903200037
:10305000FFF7AAFF0028E7D00320F0E78021064B06
:1030600000932B000022C9032000FFF79DFF0028DA
:10307000DED00320E3E7C046FFFFFF0110B5041ECA
:103080002ED0436F002B21D024236367226813685E
:1030900001218B4313602000FFF754FD012814D059
:1030A000636A002B18D1226853680E490B405360A5
:1030B000226893682A218B43936022681368293918
:1030C0000B4313602000FFF7A3FF10BD70330022F5
:1030D000C25400F0A3FDD7E72000FFF7F5FEE2E7BA
:1030E0000120F2E7FFB7FFFF7047000010B50100B5
:1030F000024B18680122FFF73BFB10BD280000209F
:1031000070B50400FFF7BAFF084D01222900200026
:10311000FFF72EFBFA208000FEF7B6F80122290007
:103120002000FFF76DFB024B1C6070BD24000020E7
:1031300028000020004870472400002010B5194ADC
:10314000136801331360184A136801331360642B4A
:1031500002DD130000221A60134B1B685A2B04DD9A
:10316000114B1B685B2B0DDC10BD002220210F488A
:10317000FEF793FA8021A02000224901C005FEF746
:103180008CFAEDE70A4B1A7820210848FEF785FAF9
:10319000084B1A788021A0204901C005FEF77DFA6E
:1031A000E2E7C04620000020380000200008005060
:1031B000300000205000002070B5040080235B0028
:1031C000984206D0102C2DD08023DB009C4233D0B7
:1031D00070BD8021A0204900C005FEF757FA0028E5
:1031E00007D01B4B5A6A1B4B1A601B4B01221A70EB
:1031F000E8E7194B1B78012BE4D1154B5D6A154BA1
:103200001B68ED1A154B1D60134B00221A70144EEB
:10321000FF213068FDF7E8F88A00124BD5500131E4
:103220003160CFE710211048FEF730FA0028CBD1EB
:103230000E4B01221A70C7E78021C9000C48FEF727
:1032400025FA0128C4D10B4A136801331360BFE784
:103250000014014060000020580000206C00002095
:10326000640000207400002000080050700000205E
:1032700000040050340000200268144B9A4200D031
:103280007047134B1B78012B18D012490B6812485A
:10329000844663441A00DB0F9B185B100B600F4BD6
:1032A0001B78012B0ED00E490B680B4884466344F3
:1032B0001A00DB0F9B185B100B60E1E7044B002248
:1032C0001A70ECE7054B00221A70D9E70014014090
:1032D000580000206C000020E8FD00007000002075
:1032E0006800002010B50400FA22D200084B1A60D2
:1032F000002308490B7008490A60084A1370FFF759
:1033000007F800212000FFF71DF8054B1C6010BDD9
:103310006C00002058000020680000207000002091
:103320005C000020014B18687047C0466C0000200C
:10333000F0B5DE4657464E464546E0B589B0142204
:10334000002103A800F0BAFD4A4BD96A04221143B8
:10335000D962D96A0A400092009ADA6A01252A43A2
:10336000DA62DA6A2A400192019ADA6A0226324364
:10337000DA62DB6A33400293029B9021002249000B
:103380003D48FEF78AF980235B0199460022190027
:10339000A020C005FEF781F9F8239B009846002283
:1033A00019003648FEF779F910230393344B9A46F7
:1033B00004930024059403A92F48FEF799F82023CD
:1033C000039304950594069503A92B48FEF790F8FE
:1033D000FC231B0203932B4F0497059403A9274852
:1033E000FEF786F8802303930497059403A92248E7
:1033F000FEF77EF880235B009B46039304950594BB
:10340000069403A91C48FEF773F880239B000393DE
:103410000497059603A91848FEF76AF85B460393DC
:1034200053460493059403A9A020C005FEF760F855
:103430004B46039304950594069503A9A020C00567
:10344000FEF756F84346039304950594069403A9A2
:103450000A48FEF74DF8002200210720FDF722FF61
:103460000720FDF74FFF09B03CBC90469946A246A5
:10347000AB46F0BD001002400008005000040050B0
:10348000000031100000111000B583B0094A116B23
:10349000012319431163126B13400193019B002216
:1034A00000210A20FDF7FEFE0A20FDF72BFF03B0E6
:1034B00000BDC0460010024030B583B00822002194
:1034C000684600F0FBFC0B4C0B4B2360A0235B0019
:1034D00063600025A560094BE36065612000FEF78D
:1034E000FCFE0095019569462000FFF7BAF803B08D
:1034F00030BDC046F805002000100040E8FD000087
:1035000030B58BB01022002106A800F0D7FC0822AD
:10351000002104A800F0D2FC10220021684600F02F
:10352000CDFC214C214B2360A0235B006360002570
:10353000A560FA239B00E360256165612000FEF72A
:10354000CCFE80235B01069306A92000FEF782FFD4
:103550002000FEF7DDFE0495059504A92000FFF785
:1035600080F8602300930195029503950022694637
:103570002000FEF7F9FE04212000FFF795F8042251
:1035800069462000FEF7F0FE082269462000FEF79B
:10359000EBFE0C2269462000FEF7E6FE200000F05C
:1035A000E7FA0BB030BDC0467004002000040040B4
:1035B00030B58BB01022002106A800F07FFC082255
:1035C000002104A800F07AFC10220021684600F0D7
:1035D00075FC194C194B2360202363600025A560FE
:1035E000174BE360256165612000FEF776FE8023BE
:1035F0005B01069306A92000FEF72CFF2000FEF7D2
:1036000087FE0495059504A92000FFF72AF860239A
:103610000093563B019302950395002269462000D2
:10362000FEF7A2FE04212000FFF73EF8200000F084
:103630009FFA0BB030BDC0463C050020001401408D
:10364000E8FD000010B50948094B036096239B0173
:10365000436000238360C36003610C224261836185
:10366000C36103624362FFF709FD10BD78050020C6
:103670000038014030B59FB03822002110A800F07A
:103680001DFC142200210BA800F018FC28220021A8
:1036900001A800F013FC16490B68164A1A40802353
:1036A0001B0113430B600223109301251395102275
:1036B00014921A9300241B948023DB021C93802312
:1036C000DB031D9310A8FEF755F80F230B930C3B5B
:1036D0000C930D940E940F9401210BA8FEF70EFB92
:1036E0000195049401A8FEF703FC1FB030BDC0464D
:1036F00000700040FFE7FFFF10B5FDF7ABFDFFF7DF
:10370000B9FFFFF715FEFFF7BFFEFFF7F9FEFFF762
:1037100099FFFFF7D1FEFFF74BFF0D48FFF7E2FDE2
:103720000C4C200000F026F800F06CF900F098F93D
:1037300000F0C8F90848FFF7E3FC962189000A0069
:10374000200000F0AFF8034800F0C4F8FBE7C046E3
:103750003C05002070040020780500207047000020
:10376000024B1870024B19707047C046D0060020FB
:10377000C3060020F0B583B0194C00232380194FF5
:103780003B80194E3380194D2B80194A1380194AFA
:1037900013800190FEF7BCFD00210198FEF7D2FDD9
:1037A00004210198FEF7CEFD08210198FEF7CAFD1D
:1037B0000C210198FEF7C6FD0023E25E0E4B5A6312
:1037C00000217A5E9A630021725EDA6300216A5EEC
:1037D0001A6400210020FFF7C3FF03B0F0BDC0460C
:1037E000C0060020540600208E060020400600205F
:1037F00084060020A80600200004004010B500291F
:1038000004D100232148038021480380002A04D1E9
:1038100000232048038020480380002904DD1B4B3F
:1038200019801B4B00201880002A04DD194B1A80D8
:10383000194B00201880002919DB002A1EDB144BCD
:1038400000229A5E154B5A63104A0021525E9A6319
:10385000114A0021525EDA630E4A0021525E1A6458
:10386000FDF70CFD0A300E4B1860012010BD074B10
:10387000002018804942064B1980DEE7054B0021E5
:1038800019805242044B1A80D9E7C046C006002076
:10389000540600208E060020400600200004004050
:1038A0005806002010B5034B1960034B1A60FFF750
:1038B000A5FF10BD7C0600209C060020FA239B007B
:1038C000984200DD1800024B984200D90020704752
:1038D000905F0100F0B5CE4600B582B00090FDF7D4
:1038E000CDFC384B1B68984203D802B004BC91460B
:1038F000F0BD354B1C68FFF715FD201AFDF71EFCC7
:10390000041C324D2860324E3168FCF755FE071C0E
:103910003060304B99461968201CFDF72BFA061CC5
:103920002D4B18602D4B1968201CFDF7F1F8019004
:103930002B4B1968381CFDF7EBF8011C0198FCF7BC
:103940003BFE071C274B1968301CFDF7E1F8011CF2
:10395000381CFCF731FE2449FCF7C8FF061C234B3A
:103960001860234B1868FDF7E9FB311CFCF724FEB7
:10397000FDF7C4FBFFF7A2FF07001E4B18601E4BAC
:103980001868FDF7DBFB311CFDF7F4F9FDF7B6FB1A
:10399000FFF794FF0200194B18604B461C6039007A
:1039A0000098FFF72BFFFDF769FC0A30054B186004
:1039B00013492868FCF79AFF28602800FFF796FB58
:1039C00093E7C0466006002090060020DC06002039
:1039D00064060020440600203C060020BC060020AF
:1039E000B0060020500600200000FA439406002094
:1039F0007C060020740600209C060020D4060020CF
:103A00000000484300230C4A13800C4A13800C4AE0
:103A1000C821490011600B4A0B4911600B4A0A2169
:103A2000116000220A490A600A490A600A490A60CC
:103A30000A4A13607047C0468C060020C806002062
:103A4000B80600205C0600208FC2F53CA4060020CA
:103A5000B40600207006002038060020580600201A
:103A600000220C4B1A800C4B1A800C4B0C4919602D
:103A700000230C490B600C490B600C490B600C498E
:103A80000B600C490B600C4B1A600C4B0C4A1A6013
:103A90007047C0468C060020C8060020BC060020E7
:103AA0000000C843B0060020500600206406002035
:103AB000440600203C0600206006002090060020FE
:103AC000140500000023024A1360024A1360704785
:103AD0003C00002044000020054B5A6B01210A43A2
:103AE0005A63996B802252050A439A637047C04615
:103AF0000010024010B50368194A934206D0194AD3
:103B0000934211D0184A93421CD010BD174A936BB0
:103B100002210B439363002200211020FDF7C2FB1A
:103B20001020FDF7EFFBF0E7104A936B10210B43D9
:103B30009363002200211120FDF7B4FB1120FDF753
:103B4000E1FBE2E7094A536B20210B435363002258
:103B500000211620FDF7A6FB1620FDF7D3FBD4E7C6
:103B6000000400400010004000140140001002401A
:103B700010B588B004001422002103A800F09EF9BB
:103B80002368224A934204D0214A934227D008B0A6
:103B900010BD204BD96A01221143D962D96A0A406B
:103BA0000092009ADA6A02242243DA62DB6A234036
:103BB0000193019BC023039304940794A02003A9BD
:103BC000C005FDF795FC032303930494002305939C
:103BD0000693079403A91048FDF78AFCD7E70D4A1E
:103BE000D16A02231943D162D26A1A400292029A20
:103BF0001022039204930593013B0693033307932A
:103C000003A90548FDF774FCC1E7C0460004004065
:103C100000140140001002400004005030B587B08D
:103C200004001422002101A800F048F92D4B22685D
:103C30009A4201D007B030BD2B4B596B8022D20184
:103C40000A435A63D96A01221143D962DB6A1A40D6
:103C50000092009BC023DB00019302230293032503
:103C6000049502330593A02001A9C005FDF740FC8F
:103C70001E481F4B03604560102383600023C36010
:103C80008022026143618361C3610362FDF760FBCF
:103C9000002820D1154BA3669C621648164B036082
:103CA0000323436000238360C36080220261436179
:103CB0008361C3610362FDF74BFB00280ED10D4BFE
:103CC000E3669C62002200211B20FDF7EBFA1B201B
:103CD000FDF718FBAEE7FFF741FDDBE7FFF73EFD21
:103CE000EDE7C0460038014000100240AC0400205F
:103CF0001C000240F4040020300002407047FEE740
:103D00007047704710B5FFF719FA10BD10B51020B5
:103D1000FDF7CAFC8020FDF7C7FC80204000FDF7BE
:103D2000C3FC80208000FDF7BFFC8020C000FDF7B1
:103D3000BBFC80200001FDF7B7FC80204001FDF7AF
:103D4000B3FC80208001FDF7AFFC8020C001FDF7AF
:103D5000ABFC80200002FDF7A7FC10BD10B50348A6
:103D6000FDF769FB0248FDF766FB10BDAC040020BF
:103D7000F404002010B50248FEF7E2FB10BDC04677
:103D80007004002010B50248FEF7DAFB10BDC046F3
:103D9000F805002010B50248FEF7D2FB10BDC04662
:103DA0003C05002010B5064C2000FEF71FFEFFF773
:103DB000C1F9010001222000FEF722FD10BDC0461E
:103DC00078050020104B1968802252000A431A60BF
:103DD000DA680E490A40DA601A680D490A401A602A
:103DE0009A6801218A439A601A680A490A401A604F
:103DF000DA6809490A40DA6000221A61074B80221A
:103E000012059A607047C046001002400C40FF88BF
:103E1000F6FFF6FEFFFFFBFFFFFF02FF00ED00E0F5
:103E20000D488546002103E00C4B5B58435004319C
:103E30000B480C4B42189A42F6D30B4A02E000237F
:103E400013600432094B9A42F9D3FFF7BBFF00F02D
:103E500011F8FFF751FCFEE7005000202040000859
:103E6000000000200400002004000020E0060020E4
:103E7000FEE7000070B500260C4D0D4C641BA4102D
:103E8000A64209D1002600F021F80A4D0A4C641B15
:103E9000A410A64205D170BDB300EB589847013677
:103EA000EEE7B300EB5898470136F2E718400008F8
:103EB00018400008184000081C40000803001218B1
:103EC000934200D1704719700133F9E7F8B5C04645
:103ED000F8BC08BC9E467047F8B5C046F8BC08BCA4
:043EE0009E46704743
:103EE400AE2D0008DC2D0008F42D0008A62E0008D5
:103EF4002C2E0008A62E0008A62E0008A62E0008C8
:103F04008C2E0008EA2C0008222D00083C2D000805
:103F1400A82D0008742D0008A82D0008A82D00085D
:103F2400A82D00088E2D0008030406080C10182084
:103F34003000000000000000000000000102030443
:103F44000607080900000000010203046A0A0008C9
:103F5400A6090008CA09000868090008CA09000877
:103F6400460A0008CA09000868090008A6090008EA
:103F7400A6090008460A0008680900089C0A000807
:103F84009C0A00089C0A0008520A0008A6090008B6
:103F9400A6090008CA09000866090008CA09000839
:103FA400460A0008CA09000866090008A6090008AC
:103FB400A6090008460A0008660900089C0A0008C9
:103FC4009C0A00089C0A0008500A0008080C000813
:103FD400B20B0008B20B0008E00C0008AE0B00089E
:103FE400AE0B0008D60C0008E00C0008AE0B00086D
:103FF400D60C0008AE0B0008E00C0008E40C000826
:0C400400E40C0008E40C0008EC0C0008C0
:0840100024C4FF7F0100000041
:04401800E9000008B3
:04401C00C1000008D7
:04402000000020007C
:0400000508003E2190
:00000001FF
